:100000000C942A000C9499010C9463050C944700FD
:100010000C9447000C9447000C94E5040C944700A2
:100020000C9447000C9447000C94AC040C94DA0533
:100030000C9447000C9447000C9447000C94470024
:100040000C9447000C9447000C9447000C94470014
:100050000C94470011241FBECFE5D8E0DEBFCDBF12
:1000600010E0A0E6B0E0EEE6FCE002C005900D92E4
:10007000A838B107D9F720E0A8E8B0E001C01D9288
:10008000A53AB207E1F70E9488030C9435060C9458
:100090000000843008F072C0683008F06FC0423051
:1000A00008F06CC0813001F130F08230B1F1833062
:1000B00009F44CC00895413059F42AB381E090E02E
:1000C00002C0880F991F6A95E2F7822B8ABB0895B8
:1000D0002AB381E090E002C0880F991F6A95E2F789
:1000E000809582238ABB0895413059F427B381E07B
:1000F00090E002C0880F991F6A95E2F7822B87BBB8
:10010000089527B381E090E002C0880F991F6A9597
:10011000E2F78095822387BB0895413059F424B3D8
:1001200081E090E002C0880F991F6A95E2F7822B68
:1001300084BB089524B381E090E002C0880F991F2A
:100140006A95E2F78095822384BB0895413059F483
:1001500021B381E090E002C0880F991F6A95E2F711
:10016000822B81BB089521B381E090E002C0880F0B
:10017000991F6A95E2F78095822381BB08958430A8
:1001800008F072C0683008F06FC0423008F06CC0F0
:10019000813001F130F08230B1F1833009F44CC08C
:1001A0000895413059F42BB381E090E002C0880FEC
:1001B000991F6A95E2F7822B8BBB08952BB381E0E0
:1001C00090E002C0880F991F6A95E2F7809582231C
:1001D0008BBB0895413059F428B381E090E002C010
:1001E000880F991F6A95E2F7822B88BB089528B380
:1001F00081E090E002C0880F991F6A95E2F7809530
:10020000822388BB0895413059F425B381E090E002
:1002100002C0880F991F6A95E2F7822B85BB08956B
:1002200025B381E090E002C0880F991F6A95E2F73C
:100230008095822385BB0895413059F422B381E033
:1002400090E002C0880F991F6A95E2F7822B82BB6B
:10025000089522B381E090E002C0880F991F6A954B
:10026000E2F78095822382BB0895813061F120F00E
:10027000823009F44FC00895611107C085B78160CD
:1002800085BF85B7826085BF1AC0613039F485B7F4
:100290008E7F85BF85B7826085BF11C0623039F41B
:1002A00085B78E7F85BF85B78D7F85BF08C06330DA
:1002B00031F485B7816085BF85B78D7F85BF8BB7EA
:1002C00080648BBF0895611107C085B7846085BFC6
:1002D00085B7886085BF1AC0613039F485B78B7FD8
:1002E00085BF85B7886085BF11C0623039F485B796
:1002F0008B7F85BF85B7877F85BF08C0633031F4AA
:1003000085B7846085BF85B7877F85BF8BB78068D9
:100310008BBF0895611104C084B7806484BF05C099
:10032000613019F484B78F7B84BF8BB780628BBF39
:1003300008951F920F920FB60F9211242F933F939F
:100340004F935F936F937F938F939F93AF93BF93DD
:10035000EF93FF93E0918800F0918900309709F0C6
:100360000995FF91EF91BF91AF919F918F917F91EF
:100370006F915F914F913F912F910F900FBE0F9012
:100380001F9018958FB780688FBF089541E064E093
:1003900083E00E94490041E065E083E00E9449005B
:1003A00041E063E082E00E94490041E064E082E0D5
:1003B0000E94490041E065E082E00E94490041E07E
:1003C00066E082E00E944900089541E064E083E035
:1003D0000E94BF0041E065E083E00E94BF0041E071
:1003E00063E082E00E94BF0040E064E082E00E949F
:1003F000BF0040E065E082E00E94BF0041E066E0AF
:1004000082E00E94BF00089541E064E083E00E9422
:10041000BF0041E065E083E00E94BF0041E063E08F
:1004200082E00E94BF0040E064E082E00E94BF00E2
:1004300041E065E082E00E94BF0040E066E082E0CB
:100440000E94BF00089541E064E083E00E94BF0085
:1004500041E065E083E00E94BF0040E063E082E0AD
:100460000E94BF0041E064E082E00E94BF0040E0E3
:1004700065E082E00E94BF0041E066E082E00E9409
:10048000BF00089540E064E083E00E94BF0040E0C8
:1004900065E083E00E94BF0040E063E082E00E94EC
:1004A000BF0040E064E082E00E94BF0040E065E001
:1004B00082E00E94BF0040E066E082E00E94BF0050
:1004C0000895CF93C82F80FF06C041E064E080E02C
:1004D0000E94BF0005C040E064E080E00E94BF00D1
:1004E000C1FF06C041E065E080E00E94BF0005C09A
:1004F00040E065E080E00E94BF00C2FF06C041E02E
:1005000066E080E00E94BF0005C040E066E080E059
:100510000E94BF00C3FF06C041E067E080E00E9488
:10052000BF0005C040E067E080E00E94BF00CF91BF
:10053000089541E064E080E00E94490041E065E008
:1005400080E00E94490041E066E080E00E944900AE
:1005500041E067E080E00E94490041E061E081E025
:100560000E94490041E062E081E00E94490041E0D0
:1005700063E081E00E9449000895CF93C82F40E0D6
:1005800061E081E00E94BF0040E062E081E00E9403
:10059000BF008C2F82958F700E94610241E063E062
:1005A00081E00E94BF008FE99FE00197F1F700C052
:1005B000000040E063E081E00E94BF008C2F0E94B9
:1005C000610241E063E081E00E94BF008FE99FE0AB
:1005D0000197F1F700C0000040E063E081E00E9475
:1005E000BF00CF9108952FE785EB91E02150804027
:1005F0009040E1F700C0000040E061E081E00E942F
:10060000BF0040E062E081E00E94BF0082E00E9403
:10061000610241E063E081E00E94BF008FE99FE05A
:100620000197F1F700C0000040E063E081E00E9424
:10063000BF0088E20E94BD0290EF9A95F1F78FE02B
:100640000E94BD0220EF2A95F1F781E00E94BD02D1
:100650008FED9EE20197F1F700C0000086E00E9456
:10066000BD020895CF93C82F41E061E081E00E9470
:10067000BF0040E062E081E00E94BF008C2F8295C5
:100680008F700E94610241E063E081E00E94BF0040
:100690008FE99FE00197F1F700C0000040E063E0C0
:1006A00081E00E94BF008C2F0E94610241E063E064
:1006B00081E00E94BF008FE99FE00197F1F700C041
:1006C000000040E063E081E00E94BF00CF91089508
:1006D0000F931F93CF93009729F40CC00E9432030D
:1006E000CF5F02C08C01C0E0F801EC0FF11D8081EA
:1006F0008111F4CFCF911F910F91089581E00E9455
:10070000BD028FED9EE20197F1F700C00000089551
:100710000E94C2010E9499020E94F3020E943B05BE
:100720000E948E040E94C6010E944E0508C00E94CD
:100730004E0580E690E00E9468030E94E5018091EA
:100740009F008823A1F3813079F70E9442022FEFA6
:1007500089E698E1215080409040E1F700C0000018
:100760000E9442042FEF89E698E12150804090409A
:10077000E1F700C000000E944E052FEF89E698E1E6
:10078000215080409040E1F700C0000080919F0020
:1007900081111FC00E947E038FE690E00E946803D3
:1007A0000E9404022FEF81EF9BE221508040904095
:1007B000E1F700C000000E9442022FEF89E698E1B5
:1007C000215080409040E1F700C000000E94680482
:1007D000ABCF813009F0A8CF0E941C042FEF83ED2E
:1007E00090E3215080409040E1F700C000000E945B
:1007F0004E052FEF89E698E1215080409040E1F7C7
:1008000000C0000080919F0081118ECF0E947E0366
:100810008CE790E00E9468030E9423022FEF81EF93
:100820009BE2215080409040E1F700C000000E9410
:1008300042020E94680478CF1092A0001EC041E0DE
:1008400067E083E00E94BF008FE79EE30197F1F726
:1008500000C0000040E067E083E00E94BF009FEF1F
:1008600029EF80E0915020408040E1F700C0000077
:100870008091A0008F5F8093A0008091A0008233C0
:10088000F0F208951092A0001EC041E067E083E0FE
:100890000E94BF008FEC97E00197F1F700C00000C5
:1008A00040E067E083E00E94BF009FEB23EF80E021
:1008B000915020408040E1F700C000008091A000EE
:1008C0008F5F8093A0008091A0008233F0F20895A2
:1008D0001092A0001EC041E067E083E00E94BF00CC
:1008E0008FE99FE00197F1F700C0000040E067E06A
:1008F00083E00E94BF009FE72DEE80E091502040F2
:100900008040E1F700C000008091A0008F5F8093DD
:10091000A0008091A0008233F0F2089541E067E0EA
:1009200083E00E9449000E946804089583B78F7B8A
:1009300083BF83B7877F83BF80E782BF89B781602A
:1009400089BF089583B7816083BF83B78D7F83BFDD
:1009500083B78B7F83BF08951F920F920FB60F92BC
:1009600011242F933F934F935F936F937F938F93B4
:100970009F93AF93BF93EF93FF9380918F009091DC
:10098000900001969093900080938F008F36910590
:1009900059F41092900010928F00E0919700F0911E
:1009A0009800309709F00995FF91EF91BF91AF91B1
:1009B0009F918F917F916F915F914F913F912F9177
:1009C0000F900FBE0F901F9018951F920F920FB6A9
:1009D0000F9211242F933F938F939F9386B597B5D2
:1009E00090938E0080938D0020918C002130A1F493
:1009F00020918A0030918B00821B930B880F991FE6
:100A0000880F991F90939400809393008EB58F7BED
:100A10008EBD10928C001EC021111CC020918A0036
:100A200030918B00821B930B880F991F880F991FA1
:100A300090939600809395008091950090919600F8
:100A400090939200809391008EB580648EBD81E07A
:100A500080938C0080918D0090918E0090938B00FC
:100A600080938A009F918F913F912F910F900FBE9D
:100A70000F901F90189541E060E083E00E944900CC
:100A800040E063E083E00E9449000E9496040E94D7
:100A9000A20463E081E00E943501089580919E00E8
:100AA000811110C041E060E083E00E94BF0080E55A
:100AB0008A95F1F740E060E083E00E94BF0081E0AA
:100AC00080939E0008951F920F920FB60F921124EB
:100AD0002F933F934F935F936F937F938F939F9346
:100AE000AF93BF93EF93FF9380919E00813009F005
:100AF00050C080919D0081110DC012BE81E0809395
:100B00009D001092990010929A0010929B001092F2
:100B10009C003FC08091990090919A00A0919B0009
:100B2000B0919C00BA2FA92F982F882722B7BC011B
:100B3000CD01620F711D811D911D20EA33E040E05F
:100B400050E00E9413062093A1003093A20040932E
:100B5000A3005093A400243131054105510520F430
:100B600081E080939F0002C010929F002FEF83EFDF
:100B700091E0215080409040E1F700C000001092C9
:100B8000990010929A0010929B0010929C00109273
:100B90009D00FF91EF91BF91AF919F918F917F91B8
:100BA0006F915F914F913F912F910F900FBE0F90DA
:100BB0001F9018951F920F920FB60F9211242F932A
:100BC0008F939F93AF93BF938091990090919A00D8
:100BD000A0919B00B0919C000196A11DB11D809336
:100BE000990090939A00A0939B00B0939C008B3D3A
:100BF0009240A105B10568F012BE10929E001092BD
:100C00009D001092990010929A0010929B001092F1
:100C10009C00BF91AF919F918F912F910F900FBE2C
:100C20000F901F901895A1E21A2EAA1BBB1BFD0165
:100C30000DC0AA1FBB1FEE1FFF1FA217B307E407BB
:100C4000F50720F0A21BB30BE40BF50B661F771F13
:100C5000881F991F1A9469F76095709580959095F3
:0E0C60009B01AC01BD01CF010895F894FFCFB8
:100C6E004D6F76696E6720466F7277617264004DC4
:100C7E006F76696E67205269676874004D6F76698A
:080C8E006E67204C65667400DE
:00000001FF
